{
  "contractName": "Auction",
  "abi": [
    {
      "inputs": [],
      "stateMutability": "nonpayable",
      "type": "constructor"
    },
    {
      "anonymous": false,
      "inputs": [
        {
          "indexed": false,
          "internalType": "address",
          "name": "bidder",
          "type": "address"
        },
        {
          "indexed": false,
          "internalType": "uint256",
          "name": "bid",
          "type": "uint256"
        },
        {
          "indexed": false,
          "internalType": "uint256",
          "name": "highestBid",
          "type": "uint256"
        }
      ],
      "name": "LogBid",
      "type": "event"
    },
    {
      "anonymous": false,
      "inputs": [
        {
          "indexed": false,
          "internalType": "address",
          "name": "withdrawer",
          "type": "address"
        },
        {
          "indexed": false,
          "internalType": "address",
          "name": "withdrawalAccount",
          "type": "address"
        },
        {
          "indexed": false,
          "internalType": "uint256",
          "name": "amount",
          "type": "uint256"
        }
      ],
      "name": "LogWithdrawal",
      "type": "event"
    },
    {
      "stateMutability": "payable",
      "type": "fallback",
      "payable": true
    },
    {
      "inputs": [],
      "name": "bid",
      "outputs": [
        {
          "internalType": "uint256",
          "name": "",
          "type": "uint256"
        }
      ],
      "stateMutability": "view",
      "type": "function",
      "constant": true
    },
    {
      "inputs": [],
      "name": "bidEnd",
      "outputs": [
        {
          "internalType": "uint256",
          "name": "",
          "type": "uint256"
        }
      ],
      "stateMutability": "view",
      "type": "function",
      "constant": true
    },
    {
      "inputs": [],
      "name": "bidder",
      "outputs": [
        {
          "internalType": "address payable",
          "name": "",
          "type": "address"
        }
      ],
      "stateMutability": "view",
      "type": "function",
      "constant": true
    },
    {
      "inputs": [],
      "name": "currentTime",
      "outputs": [
        {
          "internalType": "uint256",
          "name": "",
          "type": "uint256"
        }
      ],
      "stateMutability": "view",
      "type": "function",
      "constant": true
    },
    {
      "inputs": [],
      "name": "endAuction",
      "outputs": [
        {
          "internalType": "uint256",
          "name": "",
          "type": "uint256"
        }
      ],
      "stateMutability": "view",
      "type": "function",
      "constant": true
    },
    {
      "inputs": [],
      "name": "highestBid",
      "outputs": [
        {
          "internalType": "uint256",
          "name": "",
          "type": "uint256"
        }
      ],
      "stateMutability": "view",
      "type": "function",
      "constant": true
    },
    {
      "inputs": [],
      "name": "minimumBid",
      "outputs": [
        {
          "internalType": "uint256",
          "name": "",
          "type": "uint256"
        }
      ],
      "stateMutability": "view",
      "type": "function",
      "constant": true
    },
    {
      "inputs": [],
      "name": "owner",
      "outputs": [
        {
          "internalType": "address payable",
          "name": "",
          "type": "address"
        }
      ],
      "stateMutability": "view",
      "type": "function",
      "constant": true
    },
    {
      "inputs": [],
      "name": "startTime",
      "outputs": [
        {
          "internalType": "uint256",
          "name": "",
          "type": "uint256"
        }
      ],
      "stateMutability": "view",
      "type": "function",
      "constant": true
    },
    {
      "inputs": [],
      "name": "winner",
      "outputs": [
        {
          "internalType": "address",
          "name": "",
          "type": "address"
        }
      ],
      "stateMutability": "view",
      "type": "function",
      "constant": true
    },
    {
      "stateMutability": "payable",
      "type": "receive",
      "payable": true
    },
    {
      "inputs": [],
      "name": "getHighestBid",
      "outputs": [
        {
          "internalType": "uint256",
          "name": "",
          "type": "uint256"
        }
      ],
      "stateMutability": "nonpayable",
      "type": "function"
    },
    {
      "inputs": [],
      "name": "advanceTime",
      "outputs": [],
      "stateMutability": "nonpayable",
      "type": "function"
    },
    {
      "inputs": [],
      "name": "placeBid",
      "outputs": [
        {
          "internalType": "bool",
          "name": "success",
          "type": "bool"
        }
      ],
      "stateMutability": "payable",
      "type": "function",
      "payable": true
    },
    {
      "inputs": [],
      "name": "withdraw",
      "outputs": [
        {
          "internalType": "bool",
          "name": "success",
          "type": "bool"
        }
      ],
      "stateMutability": "nonpayable",
      "type": "function"
    }
  ],
  "bytecode": "0x6080604052600060065534801561001557600080fd5b50731aa191e9323a27c61fd1922b581829f534f9c5f16000806101000a81548173ffffffffffffffffffffffffffffffffffffffff021916908373ffffffffffffffffffffffffffffffffffffffff160217905550600560028190555060056003819055506005600481905550678ac7230489e80000600181905550610a11806100a06000396000f3fe6080604052600436106100e15760003560e01c8063d3a863861161007f578063e05084b011610059578063e05084b0146102aa578063ecfc7ecc146102c1578063f496d882146102df578063fe67a54b1461030a576100f1565b8063d3a8638614610229578063d57bde7914610254578063dfbf53ae1461027f576100f1565b80634979440a116100bb5780634979440a1461017d57806378e97925146101a85780638da5cb5b146101d3578063d18e81b3146101fe576100f1565b80631998aeef146100fc5780632cf8d127146101275780633ccfd60b14610152576100f1565b366100f1576100ee610335565b50005b6100f9610335565b50005b34801561010857600080fd5b506101116105dc565b60405161011e91906107a0565b60405180910390f35b34801561013357600080fd5b5061013c6105e2565b60405161014991906107a0565b60405180910390f35b34801561015e57600080fd5b506101676105e8565b60405161017491906107d6565b60405180910390f35b34801561018957600080fd5b506101926106d8565b60405161019f91906107a0565b60405180910390f35b3480156101b457600080fd5b506101bd6106e2565b6040516101ca91906107a0565b60405180910390f35b3480156101df57600080fd5b506101e86106e8565b6040516101f59190610832565b60405180910390f35b34801561020a57600080fd5b5061021361070c565b60405161022091906107a0565b60405180910390f35b34801561023557600080fd5b5061023e610712565b60405161024b91906107a0565b60405180910390f35b34801561026057600080fd5b50610269610718565b60405161027691906107a0565b60405180910390f35b34801561028b57600080fd5b5061029461071e565b6040516102a1919061086e565b60405180910390f35b3480156102b657600080fd5b506102bf610744565b005b6102c9610335565b6040516102d691906107d6565b60405180910390f35b3480156102eb57600080fd5b506102f461075b565b6040516103019190610832565b60405180910390f35b34801561031657600080fd5b5061031f610781565b60405161032c91906107a0565b60405180910390f35b60006006543411156103ad57600860009054906101000a900473ffffffffffffffffffffffffffffffffffffffff1673ffffffffffffffffffffffffffffffffffffffff166108fc6006549081150290604051600060405180830381858888f193505050501580156103ab573d6000803e3d6000fd5b505b33600860006101000a81548173ffffffffffffffffffffffffffffffffffffffff021916908373ffffffffffffffffffffffffffffffffffffffff16021790555034600781905550600154600754108061040b575060065460075411155b1561048457600860009054906101000a900473ffffffffffffffffffffffffffffffffffffffff1673ffffffffffffffffffffffffffffffffffffffff166108fc6007549081150290604051600060405180830381858888f1935050505015801561047a573d6000803e3d6000fd5b50600090506105d9565b60015460075411801561049a5750600654600754115b156105d85760065460075411156105d757600960009054906101000a900473ffffffffffffffffffffffffffffffffffffffff1673ffffffffffffffffffffffffffffffffffffffff16600860009054906101000a900473ffffffffffffffffffffffffffffffffffffffff1673ffffffffffffffffffffffffffffffffffffffff161461058657600860009054906101000a900473ffffffffffffffffffffffffffffffffffffffff16600960006101000a81548173ffffffffffffffffffffffffffffffffffffffff021916908373ffffffffffffffffffffffffffffffffffffffff1602179055505b6007546006819055507fbbabaf3e746c7221adc5f3e705ce28693e1f45cb1884a1c6f408c9e51c35f73d336007546006546040516105c693929190610889565b60405180910390a1600190506105d9565b5b5b90565b60075481565b60035481565b60008060009054906101000a900473ffffffffffffffffffffffffffffffffffffffff1673ffffffffffffffffffffffffffffffffffffffff166108fc6006549081150290604051600060405180830381858888f19350505050158015610653573d6000803e3d6000fd5b507f0ec497a8ae5b1ba29c60470ef651def995fac3deebbdcc56c47a4e5f51a4c2bd60008054906101000a900473ffffffffffffffffffffffffffffffffffffffff1660008054906101000a900473ffffffffffffffffffffffffffffffffffffffff166006546040516106c99392919061091f565b60405180910390a16001905090565b6000600654905090565b60025481565b60008054906101000a900473ffffffffffffffffffffffffffffffffffffffff1681565b60055481565b60015481565b60065481565b600960009054906101000a900473ffffffffffffffffffffffffffffffffffffffff1681565b60016005546107539190610985565b600581905550565b600860009054906101000a900473ffffffffffffffffffffffffffffffffffffffff1681565b60045481565b6000819050919050565b61079a81610787565b82525050565b60006020820190506107b56000830184610791565b92915050565b60008115159050919050565b6107d0816107bb565b82525050565b60006020820190506107eb60008301846107c7565b92915050565b600073ffffffffffffffffffffffffffffffffffffffff82169050919050565b600061081c826107f1565b9050919050565b61082c81610811565b82525050565b60006020820190506108476000830184610823565b92915050565b6000610858826107f1565b9050919050565b6108688161084d565b82525050565b6000602082019050610883600083018461085f565b92915050565b600060608201905061089e600083018661085f565b6108ab6020830185610791565b6108b86040830184610791565b949350505050565b6000819050919050565b60006108e56108e06108db846107f1565b6108c0565b6107f1565b9050919050565b60006108f7826108ca565b9050919050565b6000610909826108ec565b9050919050565b610919816108fe565b82525050565b60006060820190506109346000830186610910565b6109416020830185610910565b61094e6040830184610791565b949350505050565b7f4e487b7100000000000000000000000000000000000000000000000000000000600052601160045260246000fd5b600061099082610787565b915061099b83610787565b9250827fffffffffffffffffffffffffffffffffffffffffffffffffffffffffffffffff038211156109d0576109cf610956565b5b82820190509291505056fea2646970667358221220c40968573ca22181a794ddfbb4f8906dcdcf67c7a173621b64f9a1e8d3a11ca164736f6c634300080b0033",
  "immutableReferences": {},
  "source": "pragma solidity ^0.8.11;\r\n\r\ncontract Auction {\r\n\r\n    address payable public owner;\r\n    uint public minimumBid;\r\n    uint public startTime;\r\n    uint public bidEnd;\r\n    uint public endAuction;\r\n    uint public currentTime;\r\n    uint public highestBid = 0;\r\n    uint public bid;\r\n\r\n\r\n    address payable public bidder;\r\n    address public winner;\r\n\r\n\r\n    event LogBid(address bidder, uint bid, uint highestBid);\r\n    event LogWithdrawal(address withdrawer, address withdrawalAccount, uint amount);\r\n\r\n    constructor() {\r\n\r\n    owner = payable(0x1aa191e9323a27C61fD1922b581829f534F9c5F1);\r\n    startTime= 5 ;\r\n    bidEnd =  5 ;\r\n    endAuction = 5 ;\r\n    minimumBid = 10* 1000000000000000000;\r\n    }\r\n\r\n   \r\n    function getHighestBid()\r\n    public\r\n    returns (uint)\r\n    {\r\n        return highestBid;\r\n    }\r\n    \r\n    function advanceTime()\r\n    public\r\n    {\r\n        currentTime = currentTime+1;\r\n    }\r\n\r\n\r\n    function placeBid()\r\n        public\r\n        payable\r\n\r\n        returns (bool success)\r\n    {\r\n        \r\n        if (msg.value>highestBid){\r\n            bidder.transfer(highestBid);\r\n        }\r\n\r\n        bidder = payable(msg.sender);\r\n        bid = msg.value;\r\n\r\n        if (bid < minimumBid || bid <= highestBid) {\r\n            bidder.transfer(bid);\r\n            return false;\r\n        }\r\n\r\n        if (bid > minimumBid && bid > highestBid){\r\n            if (bid > highestBid) {\r\n                if (bidder != winner) {\r\n                            winner = bidder;\r\n                        }\r\n                highestBid = bid;\r\n                emit LogBid(msg.sender, bid,  highestBid);\r\n            \r\n                return true;\r\n            } \r\n        }\r\n\r\n    }\r\n\r\n    function withdraw()\r\n    public\r\n    returns (bool success)\r\n    {\r\n        owner.transfer(highestBid);\r\n\r\n        emit LogWithdrawal(owner, owner, highestBid);\r\n\r\n        return true;\r\n    }\r\n\r\n\r\n    receive() external payable  { \r\n        placeBid();\r\n    }\r\n\r\n    fallback() external payable {\r\n        placeBid();\r\n    }\r\n\r\n\r\n}\r\n",
  "sourcePath": "H:\\SMARTCONTRACT\\auction\\contracts\\Auction.sol",
  "compiler": {
    "name": "solc",
    "version": "0.8.11+commit.d7f03943.Emscripten.clang"
  },
  "schemaVersion": "3.4.10",
  "updatedAt": "2022-11-02T08:56:18.851Z",
  "networkType": "ethereum",
  "devdoc": {
    "kind": "dev",
    "methods": {},
    "version": 1
  },
  "userdoc": {
    "kind": "user",
    "methods": {},
    "version": 1
  }
}